:08022300020A000002080001BC
:1000C800C3E50B9408E50A94004019E4F50AF50B1A
:1000D800E509640145087006F508F5098006750804
:1000E80000750901E508450924FF92A3E50A707720
:1000F800E50BB409005070900106F8282873020136
:100108002102012B02013502013502013F0201499A
:1001180002015302015D020167E508450924FF92C7
:10012800908044E508450924FF9291803AE5084506
:100138000924FF92928030E508450924FF929380B4
:1001480026E508450924FF9294801CE50845092402
:10015800FF92958012E508450924FF92968008E5EC
:1001680008450924FF9297050BE50B7002050A2242
:0E0214007FF87E2AEF1FAC0670011E4C70F6BC
:0102220022B9
:0B0230001200C812000312021480F537
:100204003F065B4F666D7D077F6F777C395E797142
:04022B00020C0000C1
:10000300C3E50D943CE50C94004005E4F50CF50DB7
:10001300E50C60030200BFE50D24F6602E24F660B4
:100023004124F6605424F6606724F6607A24326033
:10003300030200BFD2A6900205E493F580C2A67521
:1000430080FFD2A77580FEC2A78071D2A690020658
:10005300E493F580C2A67580FFD2A77580FDC2A781
:10006300805AD2A6900207E493F580C2A67580FF5A
:10007300D2A77580FBC2A78043D2A6900208E4935F
:10008300F580C2A67580FFD2A77580F7C2A7802C22
:10009300D2A6900209E493F580C2A67580FFD2A789
:1000A3007580EFC2A78015D2A690020AE493F5806B
:1000B300C2A67580FFD2A77580DFC2A7050DE50D27
:0500C3007002050C2293
:0300000002017882
:0C017800787FE4F6D8FD75810D0201BF10
:10018400020230E493A3F8E493A34003F68001F25F
:1001940008DFF48029E493A3F85407240CC8C3337C
:1001A400C4540F4420C8834004F456800146F6DF4B
:1001B400E4800B0102040810204080900223E47EB6
:1001C400019360BCA3FF543F30E509541FFEE49340
:1001D400A360010ECF54C025E060A840B8E493A307
:1001E400FAE493A3F8E493A3C8C582C8CAC583CA32
:1001F400F0A3C8C582C8CAC583CADFE9DEE780BEEA
:01022F0000CE
:00000001FF
